{"abi":[{"type":"constructor","inputs":[{"name":"initialOwner","type":"address","internalType":"address"},{"name":"_scoreSigner","type":"address","internalType":"address"}],"stateMutability":"nonpayable"},{"type":"function","name":"assetContract","inputs":[],"outputs":[{"name":"","type":"address","internalType":"contract IMuSecureAsset"}],"stateMutability":"view"},{"type":"function","name":"getAuthorWorks","inputs":[{"name":"author","type":"address","internalType":"address"}],"outputs":[{"name":"","type":"bytes32[]","internalType":"bytes32[]"}],"stateMutability":"view"},{"type":"function","name":"getWork","inputs":[{"name":"fingerprintHash","type":"bytes32","internalType":"bytes32"}],"outputs":[{"name":"","type":"tuple","internalType":"struct IMuSecureRegistry.WorkRecord","components":[{"name":"fingerprintHash","type":"bytes32","internalType":"bytes32"},{"name":"ipfsCid","type":"string","internalType":"string"},{"name":"authenticityScore","type":"uint256","internalType":"uint256"},{"name":"riskLevel","type":"uint8","internalType":"enum IMuSecureRegistry.RiskLevel"},{"name":"timestamp","type":"uint256","internalType":"uint256"},{"name":"authorAddress","type":"address","internalType":"address"},{"name":"tokenId","type":"uint256","internalType":"uint256"},{"name":"soulbound","type":"bool","internalType":"bool"}]}],"stateMutability":"view"},{"type":"function","name":"owner","inputs":[],"outputs":[{"name":"","type":"address","internalType":"address"}],"stateMutability":"view"},{"type":"function","name":"pause","inputs":[],"outputs":[],"stateMutability":"nonpayable"},{"type":"function","name":"paused","inputs":[],"outputs":[{"name":"","type":"bool","internalType":"bool"}],"stateMutability":"view"},{"type":"function","name":"registerWork","inputs":[{"name":"fingerprintHash","type":"bytes32","internalType":"bytes32"},{"name":"ipfsCid","type":"string","internalType":"string"},{"name":"authenticityScore","type":"uint256","internalType":"uint256"},{"name":"soulbound","type":"bool","internalType":"bool"},{"name":"scoreSig","type":"bytes","internalType":"bytes"}],"outputs":[{"name":"tokenId","type":"uint256","internalType":"uint256"}],"stateMutability":"payable"},{"type":"function","name":"registrationFee","inputs":[],"outputs":[{"name":"","type":"uint256","internalType":"uint256"}],"stateMutability":"view"},{"type":"function","name":"renounceOwnership","inputs":[],"outputs":[],"stateMutability":"nonpayable"},{"type":"function","name":"scoreSigner","inputs":[],"outputs":[{"name":"","type":"address","internalType":"address"}],"stateMutability":"view"},{"type":"function","name":"setAssetContract","inputs":[{"name":"_assetContract","type":"address","internalType":"address"}],"outputs":[],"stateMutability":"nonpayable"},{"type":"function","name":"setRegistrationFee","inputs":[{"name":"_fee","type":"uint256","internalType":"uint256"}],"outputs":[],"stateMutability":"nonpayable"},{"type":"function","name":"setScoreSigner","inputs":[{"name":"_signer","type":"address","internalType":"address"}],"outputs":[],"stateMutability":"nonpayable"},{"type":"function","name":"setThresholds","inputs":[{"name":"_blocked","type":"uint256","internalType":"uint256"},{"name":"_high","type":"uint256","internalType":"uint256"},{"name":"_medium","type":"uint256","internalType":"uint256"}],"outputs":[],"stateMutability":"nonpayable"},{"type":"function","name":"thresholdBlocked","inputs":[],"outputs":[{"name":"","type":"uint256","internalType":"uint256"}],"stateMutability":"view"},{"type":"function","name":"thresholdHigh","inputs":[],"outputs":[{"name":"","type":"uint256","internalType":"uint256"}],"stateMutability":"view"},{"type":"function","name":"thresholdMedium","inputs":[],"outputs":[{"name":"","type":"uint256","internalType":"uint256"}],"stateMutability":"view"},{"type":"function","name":"transferOwnership","inputs":[{"name":"newOwner","type":"address","internalType":"address"}],"outputs":[],"stateMutability":"nonpayable"},{"type":"function","name":"unpause","inputs":[],"outputs":[],"stateMutability":"nonpayable"},{"type":"function","name":"withdrawFees","inputs":[],"outputs":[],"stateMutability":"nonpayable"},{"type":"function","name":"workExists","inputs":[{"name":"fingerprintHash","type":"bytes32","internalType":"bytes32"}],"outputs":[{"name":"","type":"bool","internalType":"bool"}],"stateMutability":"view"},{"type":"event","name":"OwnershipTransferred","inputs":[{"name":"previousOwner","type":"address","indexed":true,"internalType":"address"},{"name":"newOwner","type":"address","indexed":true,"internalType":"address"}],"anonymous":false},{"type":"event","name":"Paused","inputs":[{"name":"account","type":"address","indexed":false,"internalType":"address"}],"anonymous":false},{"type":"event","name":"ScoreSignerUpdated","inputs":[{"name":"oldSigner","type":"address","indexed":true,"internalType":"address"},{"name":"newSigner","type":"address","indexed":true,"internalType":"address"}],"anonymous":false},{"type":"event","name":"Unpaused","inputs":[{"name":"account","type":"address","indexed":false,"internalType":"address"}],"anonymous":false},{"type":"event","name":"WorkBlocked","inputs":[{"name":"author","type":"address","indexed":true,"internalType":"address"},{"name":"fingerprintHash","type":"bytes32","indexed":true,"internalType":"bytes32"},{"name":"authenticityScore","type":"uint256","indexed":false,"internalType":"uint256"},{"name":"timestamp","type":"uint256","indexed":false,"internalType":"uint256"}],"anonymous":false},{"type":"event","name":"WorkRegistered","inputs":[{"name":"author","type":"address","indexed":true,"internalType":"address"},{"name":"fingerprintHash","type":"bytes32","indexed":true,"internalType":"bytes32"},{"name":"ipfsCid","type":"string","indexed":false,"internalType":"string"},{"name":"authenticityScore","type":"uint256","indexed":false,"internalType":"uint256"},{"name":"riskLevel","type":"uint8","indexed":false,"internalType":"enum IMuSecureRegistry.RiskLevel"},{"name":"tokenId","type":"uint256","indexed":false,"internalType":"uint256"},{"name":"timestamp","type":"uint256","indexed":false,"internalType":"uint256"}],"anonymous":false},{"type":"error","name":"ECDSAInvalidSignature","inputs":[]},{"type":"error","name":"ECDSAInvalidSignatureLength","inputs":[{"name":"length","type":"uint256","internalType":"uint256"}]},{"type":"error","name":"ECDSAInvalidSignatureS","inputs":[{"name":"s","type":"bytes32","internalType":"bytes32"}]},{"type":"error","name":"EnforcedPause","inputs":[]},{"type":"error","name":"ExpectedPause","inputs":[]},{"type":"error","name":"OwnableInvalidOwner","inputs":[{"name":"owner","type":"address","internalType":"address"}]},{"type":"error","name":"OwnableUnauthorizedAccount","inputs":[{"name":"account","type":"address","internalType":"address"}]},{"type":"error","name":"ReentrancyGuardReentrantCall","inputs":[]}],"bytecode":{"object":"0x60803461010357601f61166a38819003918201601f19168301916001600160401b0383118484101761010757808492604094855283398101031261010357610052602061004b8361011b565b920161011b565b906001600160a01b039081169081156100eb575f549260018060a01b03199280848616175f558260405195167f8be0079c531659141344cd1fd0a4f28419497f9722a3daafe3b4186f6b6457e05f80a360017f9b779b17422d0df92223018b32b4d1fa46e071723d6817e2486d003becc55f0055605f6006556050600755602d6008551690600254161760025561153a90816101308239f35b604051631e4fbdf760e01b81525f6004820152602490fd5b5f80fd5b634e487b7160e01b5f52604160045260245ffd5b51906001600160a01b03821682036101035756fe6080806040526004361015610012575f80fd5b5f3560e01c90816314c44e09146111c2575080631760705f146111395780631dc9c209146110cf5780633026653714610e7a5780633f4ba83a14610e0b57806345fde45f14610dee578063476343ee14610d2d5780634d16304f14610d0557806350e2cd4514610ce85780635bb29923146104605780635c975abb1461043c57806368d4d6c81461038a578063715018a6146103335780638456cb59146102d35780638b67ce4e1461024a5780638da5cb5b1461022357806392fc8c1e146101f4578063b4f7572e146101d7578063c320c727146101b6578063e91f9e291461018e5763f2fde38b14610103575f80fd5b3461018a57602036600319011261018a576004356001600160a01b038181169182900361018a57610132611340565b8115610172575f54826001600160601b0360a01b8216175f55167f8be0079c531659141344cd1fd0a4f28419497f9722a3daafe3b4186f6b6457e05f80a3005b604051631e4fbdf760e01b81525f6004820152602490fd5b5f80fd5b3461018a575f36600319011261018a576002546040516001600160a01b039091168152602090f35b3461018a57602036600319011261018a576101cf611340565b600435600555005b3461018a575f36600319011261018a576020600654604051908152f35b3461018a57602036600319011261018a576004355f5260036020526020600460405f2001541515604051908152f35b3461018a575f36600319011261018a575f546040516001600160a01b039091168152602090f35b3461018a57606036600319011261018a5760443560243560043561026c611340565b818111806102ca575b1561028557600655600755600855005b60405162461bcd60e51b815260206004820152601c60248201527f4d755365637572653a20696e76616c6964207468726573686f6c6473000000006044820152606490fd5b50828211610275565b3461018a575f36600319011261018a576102eb611340565b6102f361136b565b5f805460ff60a01b1916600160a01b1790556040513381527f62e78cea01bee320cd4e420270b5ea74000d11b0c9f74754ebdbfc544b05a25890602090a1005b3461018a575f36600319011261018a5761034b611340565b5f80546001600160a01b0319811682556001600160a01b03167f8be0079c531659141344cd1fd0a4f28419497f9722a3daafe3b4186f6b6457e08280a3005b3461018a5760208060031936011261018a576004356001600160a01b0381169081900361018a575f526004815260405f20604051908183825491828152019081925f52845f20905f5b868282106104285786866103e982880383611245565b60405192839281840190828552518091526040840192915f5b82811061041157505050500390f35b835185528695509381019392810192600101610402565b8354855290930192600192830192016103d3565b3461018a575f36600319011261018a57602060ff5f5460a01c166040519015158152f35b60a036600319011261018a5760243567ffffffffffffffff811161018a5761048c9036906004016111fa565b60643590811515820361018a5760843567ffffffffffffffff811161018a576104b99036906004016111fa565b60027f9b779b17422d0df92223018b32b4d1fa46e071723d6817e2486d003becc55f005414610cd65760027f9b779b17422d0df92223018b32b4d1fa46e071723d6817e2486d003becc55f005561050e61136b565b60043515610c91578215610c5657606460443511610c11576004355f526003602052600460405f200154610bcc57600554803410610b8757803411610b09575b506002546001600160a01b031691826109ff575b50505061057060443561138b565b610579816111dc565b6003811461095c576001546001600160a01b0316928315610918576020604051809563e848584760e01b825233600483015260606024830152815f816105c3606482018a8d6112ea565b871515604483015203925af193841561090d575f946108d9575b50604051906105eb82611228565b60043582526105fb36858861130a565b60208301526044356040830152610611836111dc565b8260608301524260808301523360a08301528460c0830152151560e08201526004355f52600360205260405f2081518155602082015180519067ffffffffffffffff82116107fc5781906106686001850154611267565b601f8111610889575b50602090601f831160011461081b575f92610810575b50508160011b915f199060031b1c19161760018201555b6040820151600282015560ff60e0600760038401936060860151946106c2866111dc565b6106cb866111dc565b84199585878354169116179055608086015160048201556005810160018060a01b0360a0880151166001600160601b0360a01b82541617905560c08601516006820155019301511515918354169116179055335f52600460205260405f20805494680100000000000000008610156107fc57600186018083558610156107e85760209561076f925f5260043590875f2001556040519360a0855260a08501916112ea565b9060443585840152610780816111dc565b60408301528260608301524260808301527fb3d0324eaa126932790dc358df318f8f8dab2208da171b54ae8bf4f58ff75b50600435928033930390a360017f9b779b17422d0df92223018b32b4d1fa46e071723d6817e2486d003becc55f0055604051908152f35b634e487b7160e01b5f52603260045260245ffd5b634e487b7160e01b5f52604160045260245ffd5b015190508880610687565b9250600184015f5260205f20905f935b601f198416851061086e576001945083601f19811610610856575b505050811b01600182015561069e565b01515f1960f88460031b161c19169055888080610846565b8181015183556020948501946001909301929091019061082b565b909150600184015f5260205f20601f840160051c8101602085106108d2575b90849392915b601f830160051c820181106108c4575050610671565b5f81558594506001016108ae565b50806108a8565b9093506020813d602011610905575b816108f560209383611245565b8101031261018a575192856105dd565b3d91506108e8565b6040513d5f823e3d90fd5b606460405162461bcd60e51b815260206004820152602060248201527f4d755365637572653a20617373657420636f6e7472616374206e6f74207365746044820152fd5b6040516044358152426020820152600435907fe9da0beaf23fb75a413b2b8aed90ea4d2262ac00e3a698467cfeb76a1fdf83ea60403392a360405162461bcd60e51b815260206004820152603860248201527f4d755365637572653a20776f726b20626c6f636b6564202d20746f6f2073696d60448201527f696c617220746f206578697374696e6720636174616c6f6700000000000000006064820152608490fd5b610aa491610a95610a9b92604051602081019060043582526044356040820152888b6060830137610a6060a9828b81018d151560f81b60608201523360601b60618201524660758201523060601b6095820152036089810184520182611245565b5190207f19457468657265756d205369676e6564204d6573736167653a0a3332000000005f52601c52603c5f2092369161130a565b906113bd565b909291926113f7565b6001600160a01b031603610aba57838080610562565b60405162461bcd60e51b815260206004820152602160248201527f4d755365637572653a20696e76616c69642073636f7265207369676e617475726044820152606560f81b6064820152608490fd5b3403348111610b73575f80808093335af1610b226112bb565b5015610b2e578561054e565b60405162461bcd60e51b815260206004820152601760248201527f4d755365637572653a20726566756e64206661696c65640000000000000000006044820152606490fd5b634e487b7160e01b5f52601160045260245ffd5b60405162461bcd60e51b815260206004820152601a60248201527f4d755365637572653a20696e73756666696369656e74206665650000000000006044820152606490fd5b60405162461bcd60e51b815260206004820152601c60248201527f4d755365637572653a20616c72656164792072656769737465726564000000006044820152606490fd5b60405162461bcd60e51b815260206004820152601c60248201527f4d755365637572653a2073636f7265206f7574206f662072616e6765000000006044820152606490fd5b60405162461bcd60e51b8152602060048201526013602482015272135d54d958dd5c994e88195b5c1d1e4810d251606a1b6044820152606490fd5b60405162461bcd60e51b815260206004820152601b60248201527f4d755365637572653a20656d7074792066696e6765727072696e7400000000006044820152606490fd5b604051633ee5aeb560e01b8152600490fd5b3461018a575f36600319011261018a576020600854604051908152f35b3461018a575f36600319011261018a576001546040516001600160a01b039091168152602090f35b3461018a575f36600319011261018a57610d45611340565b478015610db2575f8080809360018060a01b038254165af1610d656112bb565b5015610d6d57005b60405162461bcd60e51b815260206004820152601960248201527f4d755365637572653a207472616e73666572206661696c6564000000000000006044820152606490fd5b60405162461bcd60e51b81526020600482015260146024820152734d755365637572653a206e6f2062616c616e636560601b6044820152606490fd5b3461018a575f36600319011261018a576020600754604051908152f35b3461018a575f36600319011261018a57610e23611340565b5f5460ff8160a01c1615610e685760ff60a01b19165f556040513381527f5db9ee0a495bf2e6ff9c91a7834c1ba4fdd244a5e8aa4e537bd38aeae4b073aa90602090a1005b604051638dfc202b60e01b8152600490fd5b3461018a5760208060031936011261018a576004355f60e0604051610e9e81611228565b8281526060858201528260408201528260608201528260808201528260a08201528260c08201520152805f5260038252600460405f20015415611094575f526003815260405f2060405190610ef282611228565b8054825260019083600182016040519384915f91815491610f1283611267565b80865292600181169081156110715750600114611033575b505050610f3992500383611245565b8383019182526002810154916040840192835260ff600383015416906060850191610f63816111dc565b82526004830154926080860193845260018060a01b038060058301541660a0880190815260ff600760068501549460c08b019586520154169360e089019415158552604051988a8a52518a8a01525195610100958660408b0152875197886101208c01525f5b89811061101e575050899a5061014099985f8b8a8c0101525160608a015251610ff1816111dc565b60808901525160a0880152511660c08601525160e085015251151590830152601f01601f19168101030190f35b8181018d01518c820161014001528c01610fc9565b5f90815285812095935091905b818310611059575088945050820101610f398880610f2a565b85548884018501529485019487945091830191611040565b92505050610f3994925060ff191682840152151560051b82010186928880610f2a565b60405162461bcd60e51b8152600481018390526013602482015272135d54d958dd5c994e881b9bdd08199bdd5b99606a1b6044820152606490fd5b3461018a57602036600319011261018a576004356001600160a01b038181169182900361018a576110fe611340565b816002549182167f090901d9a0ad8a4b5384ed21037c29f768a11fb25eb07cf6ca5ba514dfac4c6a5f80a36001600160a01b03191617600255005b3461018a57602036600319011261018a576004356001600160a01b0381169081900361018a57611167611340565b8015611184576001600160601b0360a01b60015416176001555f80f35b60405162461bcd60e51b81526020600482015260166024820152754d755365637572653a207a65726f206164647265737360501b6044820152606490fd5b3461018a575f36600319011261018a576020906005548152f35b600411156111e657565b634e487b7160e01b5f52602160045260245ffd5b9181601f8401121561018a5782359167ffffffffffffffff831161018a576020838186019501011161018a57565b610100810190811067ffffffffffffffff8211176107fc57604052565b90601f8019910116810190811067ffffffffffffffff8211176107fc57604052565b90600182811c92168015611295575b602083101461128157565b634e487b7160e01b5f52602260045260245ffd5b91607f1691611276565b67ffffffffffffffff81116107fc57601f01601f191660200190565b3d156112e5573d906112cc8261129f565b916112da6040519384611245565b82523d5f602084013e565b606090565b908060209392818452848401375f828201840152601f01601f1916010190565b9291926113168261129f565b916113246040519384611245565b82948184528183011161018a578281602093845f960137010152565b5f546001600160a01b0316330361135357565b60405163118cdaa760e01b8152336004820152602490fd5b60ff5f5460a01c1661137957565b60405163d93c066560e01b8152600490fd5b6006548110156113b7576007548110156113b15760085411156113ac575f90565b600190565b50600290565b50600390565b81519190604183036113ed576113e69250602082015190606060408401519301515f1a90611482565b9192909190565b50505f9160029190565b611400816111dc565b80611409575050565b611412816111dc565b6001810361142c5760405163f645eedf60e01b8152600490fd5b611435816111dc565b600281036114565760405163fce698f760e01b815260048101839052602490fd5b806114626003926111dc565b1461146a5750565b602490604051906335e2f38360e21b82526004820152fd5b91907f7fffffffffffffffffffffffffffffff5d576e7357a4501ddfe92f46681b20a084116114f9579160209360809260ff5f9560405194855216868401526040830152606082015282805260015afa1561090d575f516001600160a01b038116156114ef57905f905f90565b505f906001905f90565b5050505f916003919056fea2646970667358221220f11703fdec754b924953c8b387cb0649f7792b897f69ce766175aac309d6998b64736f6c63430008180033","linkReferences":{}},"methodIdentifiers":{"assetContract()":"4d16304f","getAuthorWorks(address)":"68d4d6c8","getWork(bytes32)":"30266537","owner()":"8da5cb5b","pause()":"8456cb59","paused()":"5c975abb","registerWork(bytes32,string,uint256,bool,bytes)":"5bb29923","registrationFee()":"14c44e09","renounceOwnership()":"715018a6","scoreSigner()":"e91f9e29","setAssetContract(address)":"1760705f","setRegistrationFee(uint256)":"c320c727","setScoreSigner(address)":"1dc9c209","setThresholds(uint256,uint256,uint256)":"8b67ce4e","thresholdBlocked()":"b4f7572e","thresholdHigh()":"45fde45f","thresholdMedium()":"50e2cd45","transferOwnership(address)":"f2fde38b","unpause()":"3f4ba83a","withdrawFees()":"476343ee","workExists(bytes32)":"92fc8c1e"},"id":47}