{"abi":[{"type":"constructor","inputs":[{"name":"initialOwner","type":"address","internalType":"address"}],"stateMutability":"nonpayable"},{"type":"function","name":"approve","inputs":[{"name":"to","type":"address","internalType":"address"},{"name":"tokenId","type":"uint256","internalType":"uint256"}],"outputs":[],"stateMutability":"nonpayable"},{"type":"function","name":"balanceOf","inputs":[{"name":"owner","type":"address","internalType":"address"}],"outputs":[{"name":"","type":"uint256","internalType":"uint256"}],"stateMutability":"view"},{"type":"function","name":"getApproved","inputs":[{"name":"tokenId","type":"uint256","internalType":"uint256"}],"outputs":[{"name":"","type":"address","internalType":"address"}],"stateMutability":"view"},{"type":"function","name":"isApprovedForAll","inputs":[{"name":"owner","type":"address","internalType":"address"},{"name":"operator","type":"address","internalType":"address"}],"outputs":[{"name":"","type":"bool","internalType":"bool"}],"stateMutability":"view"},{"type":"function","name":"isSoulbound","inputs":[{"name":"tokenId","type":"uint256","internalType":"uint256"}],"outputs":[{"name":"","type":"bool","internalType":"bool"}],"stateMutability":"view"},{"type":"function","name":"mintCertificate","inputs":[{"name":"to","type":"address","internalType":"address"},{"name":"ipfsCid","type":"string","internalType":"string"},{"name":"soulbound","type":"bool","internalType":"bool"}],"outputs":[{"name":"tokenId","type":"uint256","internalType":"uint256"}],"stateMutability":"nonpayable"},{"type":"function","name":"name","inputs":[],"outputs":[{"name":"","type":"string","internalType":"string"}],"stateMutability":"view"},{"type":"function","name":"owner","inputs":[],"outputs":[{"name":"","type":"address","internalType":"address"}],"stateMutability":"view"},{"type":"function","name":"ownerOf","inputs":[{"name":"tokenId","type":"uint256","internalType":"uint256"}],"outputs":[{"name":"","type":"address","internalType":"address"}],"stateMutability":"view"},{"type":"function","name":"pause","inputs":[],"outputs":[],"stateMutability":"nonpayable"},{"type":"function","name":"paused","inputs":[],"outputs":[{"name":"","type":"bool","internalType":"bool"}],"stateMutability":"view"},{"type":"function","name":"registryContract","inputs":[],"outputs":[{"name":"","type":"address","internalType":"address"}],"stateMutability":"view"},{"type":"function","name":"renounceOwnership","inputs":[],"outputs":[],"stateMutability":"nonpayable"},{"type":"function","name":"safeTransferFrom","inputs":[{"name":"from","type":"address","internalType":"address"},{"name":"to","type":"address","internalType":"address"},{"name":"tokenId","type":"uint256","internalType":"uint256"}],"outputs":[],"stateMutability":"nonpayable"},{"type":"function","name":"safeTransferFrom","inputs":[{"name":"from","type":"address","internalType":"address"},{"name":"to","type":"address","internalType":"address"},{"name":"tokenId","type":"uint256","internalType":"uint256"},{"name":"data","type":"bytes","internalType":"bytes"}],"outputs":[],"stateMutability":"nonpayable"},{"type":"function","name":"setApprovalForAll","inputs":[{"name":"operator","type":"address","internalType":"address"},{"name":"approved","type":"bool","internalType":"bool"}],"outputs":[],"stateMutability":"nonpayable"},{"type":"function","name":"setRegistryContract","inputs":[{"name":"_registry","type":"address","internalType":"address"}],"outputs":[],"stateMutability":"nonpayable"},{"type":"function","name":"setSoulbound","inputs":[{"name":"tokenId","type":"uint256","internalType":"uint256"},{"name":"_isSoulbound","type":"bool","internalType":"bool"}],"outputs":[],"stateMutability":"nonpayable"},{"type":"function","name":"supportsInterface","inputs":[{"name":"interfaceId","type":"bytes4","internalType":"bytes4"}],"outputs":[{"name":"","type":"bool","internalType":"bool"}],"stateMutability":"view"},{"type":"function","name":"symbol","inputs":[],"outputs":[{"name":"","type":"string","internalType":"string"}],"stateMutability":"view"},{"type":"function","name":"tokenURI","inputs":[{"name":"tokenId","type":"uint256","internalType":"uint256"}],"outputs":[{"name":"","type":"string","internalType":"string"}],"stateMutability":"view"},{"type":"function","name":"transferFrom","inputs":[{"name":"from","type":"address","internalType":"address"},{"name":"to","type":"address","internalType":"address"},{"name":"tokenId","type":"uint256","internalType":"uint256"}],"outputs":[],"stateMutability":"nonpayable"},{"type":"function","name":"transferOwnership","inputs":[{"name":"newOwner","type":"address","internalType":"address"}],"outputs":[],"stateMutability":"nonpayable"},{"type":"function","name":"unpause","inputs":[],"outputs":[],"stateMutability":"nonpayable"},{"type":"event","name":"Approval","inputs":[{"name":"owner","type":"address","indexed":true,"internalType":"address"},{"name":"approved","type":"address","indexed":true,"internalType":"address"},{"name":"tokenId","type":"uint256","indexed":true,"internalType":"uint256"}],"anonymous":false},{"type":"event","name":"ApprovalForAll","inputs":[{"name":"owner","type":"address","indexed":true,"internalType":"address"},{"name":"operator","type":"address","indexed":true,"internalType":"address"},{"name":"approved","type":"bool","indexed":false,"internalType":"bool"}],"anonymous":false},{"type":"event","name":"BatchMetadataUpdate","inputs":[{"name":"_fromTokenId","type":"uint256","indexed":false,"internalType":"uint256"},{"name":"_toTokenId","type":"uint256","indexed":false,"internalType":"uint256"}],"anonymous":false},{"type":"event","name":"CertificateMinted","inputs":[{"name":"to","type":"address","indexed":true,"internalType":"address"},{"name":"tokenId","type":"uint256","indexed":true,"internalType":"uint256"},{"name":"ipfsCid","type":"string","indexed":false,"internalType":"string"},{"name":"soulbound","type":"bool","indexed":false,"internalType":"bool"}],"anonymous":false},{"type":"event","name":"MetadataUpdate","inputs":[{"name":"_tokenId","type":"uint256","indexed":false,"internalType":"uint256"}],"anonymous":false},{"type":"event","name":"OwnershipTransferred","inputs":[{"name":"previousOwner","type":"address","indexed":true,"internalType":"address"},{"name":"newOwner","type":"address","indexed":true,"internalType":"address"}],"anonymous":false},{"type":"event","name":"Paused","inputs":[{"name":"account","type":"address","indexed":false,"internalType":"address"}],"anonymous":false},{"type":"event","name":"SoulboundStatusChanged","inputs":[{"name":"tokenId","type":"uint256","indexed":true,"internalType":"uint256"},{"name":"soulbound","type":"bool","indexed":false,"internalType":"bool"}],"anonymous":false},{"type":"event","name":"Transfer","inputs":[{"name":"from","type":"address","indexed":true,"internalType":"address"},{"name":"to","type":"address","indexed":true,"internalType":"address"},{"name":"tokenId","type":"uint256","indexed":true,"internalType":"uint256"}],"anonymous":false},{"type":"event","name":"Unpaused","inputs":[{"name":"account","type":"address","indexed":false,"internalType":"address"}],"anonymous":false},{"type":"error","name":"ERC721IncorrectOwner","inputs":[{"name":"sender","type":"address","internalType":"address"},{"name":"tokenId","type":"uint256","internalType":"uint256"},{"name":"owner","type":"address","internalType":"address"}]},{"type":"error","name":"ERC721InsufficientApproval","inputs":[{"name":"operator","type":"address","internalType":"address"},{"name":"tokenId","type":"uint256","internalType":"uint256"}]},{"type":"error","name":"ERC721InvalidApprover","inputs":[{"name":"approver","type":"address","internalType":"address"}]},{"type":"error","name":"ERC721InvalidOperator","inputs":[{"name":"operator","type":"address","internalType":"address"}]},{"type":"error","name":"ERC721InvalidOwner","inputs":[{"name":"owner","type":"address","internalType":"address"}]},{"type":"error","name":"ERC721InvalidReceiver","inputs":[{"name":"receiver","type":"address","internalType":"address"}]},{"type":"error","name":"ERC721InvalidSender","inputs":[{"name":"sender","type":"address","internalType":"address"}]},{"type":"error","name":"ERC721NonexistentToken","inputs":[{"name":"tokenId","type":"uint256","internalType":"uint256"}]},{"type":"error","name":"EnforcedPause","inputs":[]},{"type":"error","name":"ExpectedPause","inputs":[]},{"type":"error","name":"OwnableInvalidOwner","inputs":[{"name":"owner","type":"address","internalType":"address"}]},{"type":"error","name":"OwnableUnauthorizedAccount","inputs":[{"name":"account","type":"address","internalType":"address"}]}],"bytecode":{"object":"0x608034620003bd57601f906001600160401b03601f1962001ba6388190038581018316850184811186821017620003c157859282916040528339602094859181010312620003bd57516001600160a01b03948582169391849003620003bd5762000068620003d5565b94601786527f4d75536563757265204950204365727469666963617465000000000000000000818701526200009c620003d5565b906004948583526304d5349560e41b828401528751858111620003aa575f54986001998a81811c911680156200039f575b858210146200038c5790818784931162000339575b508490878311600114620002d9575f92620002cd575b50505f19600383901b1c191690891b175f555b8251948511620002ba5787548881811c91168015620002af575b838210146200029c5790818587969594931162000243575b5081938511600114620001df5750505f92620001d3575b50505f19600383901b1c191690841b1783555b8115620001bc5750600780546001600160a01b03198116831790915560405193167f8be0079c531659141344cd1fd0a4f28419497f9722a3daafe3b4186f6b6457e05f80a36009556117b09081620003f68239f35b6024905f60405191631e4fbdf760e01b8352820152fd5b015190505f8062000154565b88959392919316855f52835f20935f905b82821062000229575050841162000210575b505050811b01835562000167565b01515f1960f88460031b161c191690555f808062000202565b8484015186558a97909501949384019390810190620001f0565b909192939450885f52825f208580880160051c82019285891062000292575b9188978c9297969594930160051c01915b828110620002835750506200013d565b5f81558897508b910162000273565b9250819262000262565b602287634e487b7160e01b5f525260245ffd5b90607f169062000125565b604186634e487b7160e01b5f525260245ffd5b015190505f80620000f8565b90848c9416915f8052865f20925f5b8882821062000322575050841162000309575b505050811b015f556200010b565b01515f1960f88460031b161c191690555f8080620002fb565b8385015186558f97909501949384019301620002e8565b9091505f8052845f208780850160051c82019287861062000382575b918d91869594930160051c01915b82811062000373575050620000e2565b5f81558594508d910162000363565b9250819262000355565b602289634e487b7160e01b5f525260245ffd5b90607f1690620000cd565b604187634e487b7160e01b5f525260245ffd5b5f80fd5b634e487b7160e01b5f52604160045260245ffd5b60408051919082016001600160401b03811183821017620003c15760405256fe6080806040526004361015610012575f80fd5b5f3560e01c90816301ffc9a71461104057508063028ebc4414610ff457806306fdde0314610f4d578063081812fc14610f11578063095ea7b314610e3057806323b872dd14610e1957806328c1f99b14610df15780633f4ba83a14610d8057806342842e0e14610d535780635c975abb14610d2e5780636352211e14610cfe57806370a0823114610ca8578063715018a614610c4d5780638456cb5914610bec5780638da5cb5b14610bc4578063911ec47014610b9557806395d89b4114610ab7578063966d964b146109d7578063a22cb46514610913578063b88d4fde1461087d578063c87b56dd14610846578063e848584714610201578063e985e9c5146101af5763f2fde38b14610124575f80fd5b346101ab5760203660031901126101ab5761013d6110c5565b6101456115a9565b6001600160a01b0390811690811561019357600754826001600160601b0360a01b821617600755167f8be0079c531659141344cd1fd0a4f28419497f9722a3daafe3b4186f6b6457e05f80a3005b604051631e4fbdf760e01b81525f6004820152602490fd5b5f80fd5b346101ab5760403660031901126101ab576101c86110c5565b6101d06110db565b9060018060a01b038091165f52600560205260405f2091165f52602052602060ff60405f2054166040519015158152f35b346101ab5760603660031901126101ab5761021a6110c5565b6024359067ffffffffffffffff82116101ab57366023830112156101ab5767ffffffffffffffff8260040135116101ab573660248360040135840101116101ab576044351515604435036101ab57610270611759565b6008546001600160a01b03163303610801576001600160a01b0381161515610297816111d5565b600954905f1982146107ed5760018201600955815f52600a6020526102cd60443560405f209060ff801983541691151516179055565b604051906102da8261117b565b5f82526001600160a01b038416156107d5575f838152600260205260409020546001600160a01b03161515806107c2575b610763575f838152600260205260409020546001600160a01b03169081610730575b61070d575b5f83815260026020526040812080546001600160a01b0319166001600160a01b038716908117909155849183907fddf252ad1be2c89b69c2b068fc378daa952ba7f163c4a11628f55a4df523b3ef9080a46106f557823b6105c3575b506040519266697066733a2f2f60c81b602085015280600401356024820160278601376103d1602785836004013581015f83820152036007810187520185611197565b815f52600660205260405f20845167ffffffffffffffff81116105af576103f88254611221565b95601f871161056a575b602096508690601f83116001146104e45791807fad7ced811a02462ec9d8cba3a2efbdccd33fbd06c7a31f121c24f356c4ee091694928798945f926104d9575b50508160011b915f199060031b1c19161790555b7ff8e1a15aba9398e019f0b49df1a4fde98ee17ae345cb5f6b5e2c27f5033e8ce786604051868152a1606060405180926040825285600401356040830152856004013560248701848401375f6004909601358281018401969096526044351515898301526001600160a01b031694601f01601f19168101030190a3604051908152f35b015190508980610442565b90601f19831691845f52885f20925f5b8181106105535750926001928592899a967fad7ced811a02462ec9d8cba3a2efbdccd33fbd06c7a31f121c24f356c4ee091698961061053b575b505050811b019055610456565b01515f1960f88460031b161c1916905589808061052e565b92938a6001819287860151815501950193016104f4565b825f5260205f20601f830160051c810197602084106105a5575b601f0160051c01965b87811061059a5750610402565b5f815560010161058d565b9097508790610584565b634e487b7160e01b5f52604160045260245ffd5b604051602081806105fc630a85bd0160e11b958683523360048401525f6024840152876044840152608060648401526084830190611112565b03815f6001600160a01b0389165af15f91816106b0575b5061067a57833d15610672573d9061062a826111b9565b916106386040519384611197565b82523d5f602084013e5b8151918261066b57604051633250574960e11b81526001600160a01b0383166004820152602490fd5b6020915001fd5b606090610642565b6001600160e01b0319160361068f578361038e565b604051633250574960e11b81526001600160a01b0383166004820152602490fd5b9091506020813d6020116106ed575b816106cc60209383611197565b810103126101ab57516001600160e01b0319811681036101ab579086610613565b3d91506106bf565b6040516339e3563760e11b81525f6004820152602490fd5b6001600160a01b0384165f90815260036020526040902080546001019055610332565b5f84815260046020526040902080546001600160a01b0319169055815f52600360205260405f205f19815401905561032d565b60405162461bcd60e51b815260206004820152603160248201527f4d7553656375726541737365743a20736f756c626f756e6420746f6b656e202d604482015270206e6f6e2d7472616e7366657261626c6560781b6064820152608490fd5b50600a60205260ff60405f20541661030b565b604051633250574960e11b81525f6004820152602490fd5b634e487b7160e01b5f52601160045260245ffd5b60405162461bcd60e51b815260206004820152601c60248201527f4d7553656375726541737365743a206f6e6c79207265676973747279000000006044820152606490fd5b346101ab5760203660031901126101ab57610879610865600435611460565b604051918291602083526020830190611112565b0390f35b346101ab5760803660031901126101ab576108966110c5565b61089e6110db565b906044356064359267ffffffffffffffff84116101ab57366023850112156101ab578360040135926108cf846111b9565b936108dd6040519586611197565b80855236602482880101116101ab576020815f9260246109119901838901378601015261090b838383611259565b3361160f565b005b346101ab5760403660031901126101ab5761092c6110c5565b61093461116c565b9033156109bf576001600160a01b03169081156109a657335f52600560205260405f20825f526020526109768160405f209060ff801983541691151516179055565b60405190151581527f17307eab39ab6107e8899845ad3d59bd9653f200f220920489ca2b5937696c3160203392a3005b604051630b61174360e31b815260048101839052602490fd5b60405163a9fbf51f60e01b81525f6004820152602490fd5b346101ab5760403660031901126101ab576004356109f361116c565b6109fb6115a9565b5f828152600260205260409020546001600160a01b031615610a665760207fc3e8f137fddf52bd069912614ea1147dd6a0da5300b09693edf0ea0f99695cc791835f52600a8252610a5b8160405f209060ff801983541691151516179055565b6040519015158152a2005b60405162461bcd60e51b815260206004820152602360248201527f4d7553656375726541737365743a20746f6b656e20646f6573206e6f742065786044820152621a5cdd60ea1b6064820152608490fd5b346101ab575f3660031901126101ab576040515f60018260015492610adb84611221565b92838352602094856001821691825f14610b75575050600114610b1a575b50610b0692500383611197565b610879604051928284938452830190611112565b84915060015f527fb10e2d527612073b26eecdfd717e6a320cf44b4afac2b0732d9fcbe2b7fa0cf6905f915b858310610b5d575050610b06935082010185610af9565b80548389018501528794508693909201918101610b46565b60ff191685820152610b0695151560051b8501019250879150610af99050565b346101ab5760203660031901126101ab576004355f52600a602052602060ff60405f2054166040519015158152f35b346101ab575f3660031901126101ab576007546040516001600160a01b039091168152602090f35b346101ab575f3660031901126101ab57610c046115a9565b610c0c611759565b6007805460ff60a01b1916600160a01b1790556040513381527f62e78cea01bee320cd4e420270b5ea74000d11b0c9f74754ebdbfc544b05a25890602090a1005b346101ab575f3660031901126101ab57610c656115a9565b600780546001600160a01b031981169091555f906001600160a01b03167f8be0079c531659141344cd1fd0a4f28419497f9722a3daafe3b4186f6b6457e08280a3005b346101ab5760203660031901126101ab576001600160a01b03610cc96110c5565b168015610ce6575f526003602052602060405f2054604051908152f35b6040516322718ad960e21b81525f6004820152602490fd5b346101ab5760203660031901126101ab576020610d1c6004356115d5565b6040516001600160a01b039091168152f35b346101ab575f3660031901126101ab57602060ff60075460a01c166040519015158152f35b346101ab57610911610d6436611137565b9060405192610d728461117b565b5f845261090b838383611259565b346101ab575f3660031901126101ab57610d986115a9565b60075460ff8160a01c1615610ddf5760ff60a01b19166007556040513381527f5db9ee0a495bf2e6ff9c91a7834c1ba4fdd244a5e8aa4e537bd38aeae4b073aa90602090a1005b604051638dfc202b60e01b8152600490fd5b346101ab575f3660031901126101ab576008546040516001600160a01b039091168152602090f35b346101ab57610911610e2a36611137565b91611259565b346101ab5760403660031901126101ab57610e496110c5565b602435610e55816115d5565b33151580610efe575b80610ed5575b610ebd576001600160a01b039283169282918491167f8c5be1e5ebec7d5bd14f71427d1e84f3dd0314c0f7b2291e5b200ac8c7c3b9255f80a45f90815260046020526040902080546001600160a01b0319169091179055005b60405163a9fbf51f60e01b8152336004820152602490fd5b5060018060a01b0381165f52600560205260405f20335f5260205260ff60405f20541615610e64565b506001600160a01b038116331415610e5e565b346101ab5760203660031901126101ab57600435610f2e816115d5565b505f526004602052602060018060a01b0360405f205416604051908152f35b346101ab575f3660031901126101ab576040515f80549082610f6e83611221565b91828252602093600190856001821691825f14610b75575050600114610f9b5750610b0692500383611197565b5f808052859250907f290decd9548b62a8d60345a988386fc84ba6bc95484008f6362f93160ef3e5635b858310610fdc575050610b06935082010185610af9565b80548389018501528794508693909201918101610fc5565b346101ab5760203660031901126101ab5761100d6110c5565b6110156115a9565b6001600160a01b03166110298115156111d5565b6001600160601b0360a01b60085416176008555f80f35b346101ab5760203660031901126101ab576004359063ffffffff60e01b82168092036101ab57602091632483248360e11b8114908115611082575b5015158152f35b6380ac58cd60e01b8114915081156110b4575b81156110a3575b508361107b565b6301ffc9a760e01b1490508361109c565b635b5e139f60e01b81149150611095565b600435906001600160a01b03821682036101ab57565b602435906001600160a01b03821682036101ab57565b5f5b8381106111025750505f910152565b81810151838201526020016110f3565b9060209161112b815180928185528580860191016110f1565b601f01601f1916010190565b60609060031901126101ab576001600160a01b039060043582811681036101ab579160243590811681036101ab579060443590565b6024359081151582036101ab57565b6020810190811067ffffffffffffffff8211176105af57604052565b90601f8019910116810190811067ffffffffffffffff8211176105af57604052565b67ffffffffffffffff81116105af57601f01601f191660200190565b156111dc57565b60405162461bcd60e51b815260206004820152601b60248201527f4d7553656375726541737365743a207a65726f206164647265737300000000006044820152606490fd5b90600182811c9216801561124f575b602083101461123b57565b634e487b7160e01b5f52602260045260245ffd5b91607f1691611230565b6001600160a01b0391821692909183156107d557815f526020926002845260409482865f20541615158061144f575b6113f1578390815f526002865283875f205416953315158061135f575b506002908761132e575b825f5260038152885f2060018154019055835f5252865f20816001600160601b0360a01b825416179055857fddf252ad1be2c89b69c2b068fc378daa952ba7f163c4a11628f55a4df523b3ef5f80a4169283830361130d5750505050565b6064945051926364283d7b60e01b8452600484015260248301526044820152fd5b5f84815260046020526040812080546001600160a01b03191690558881526003825289902080545f190190556112af565b91925090806113b0575b15611377579084915f6112a5565b868587611394576024915190637e27328960e01b82526004820152fd5b604491519063177e802f60e01b82523360048301526024820152fd5b5033861480156113d5575b806113695750845f52600481523384885f20541614611369565b50855f5260058152865f20335f52815260ff875f2054166113bb565b855162461bcd60e51b815260048101869052603160248201527f4d7553656375726541737365743a20736f756c626f756e6420746f6b656e202d604482015270206e6f6e2d7472616e7366657261626c6560781b6064820152608490fd5b50600a855260ff865f205416611288565b611469816115d5565b5060408051916114788361117b565b5f8352805f52602060068152825f20938351945f8682549161149983611221565b9283835286830194600191886001821691825f1461158957505060011461154c575b50506114c992500387611197565b815195861561154257805161150557505050506114e79192506115d5565b505f81516114f48161117b565b52516114ff8161117b565b5f815290565b90919293506115338661152461153f97519889968880890191016110f1565b840191518093868401906110f1565b01038084520182611197565b90565b9550505050505090565b8792505f52815f20905f915b8583106115705750506114c993508201015f806114bb565b8194848483969596549201015201910189928792611558565b92509350506114c994915060ff19168552151560051b8201015f806114bb565b6007546001600160a01b031633036115bd57565b60405163118cdaa760e01b8152336004820152602490fd5b5f818152600260205260409020546001600160a01b03169081156115f7575090565b60249060405190637e27328960e01b82526004820152fd5b9293909193843b611622575b5050505050565b604051630a85bd0160e11b8082526001600160a01b039586166004830152938516602482015260448101919091526080606482015260209594909316939290859082908190611675906084830190611112565b03815f885af15f9181611719575b506116e2575050503d5f146116da573d9161169d836111b9565b926116ab6040519485611197565b83523d5f8285013e5b825192836116d557604051633250574960e11b815260048101849052602490fd5b019050fd5b6060916116b4565b9193506001600160e01b03199091160361170157505f8080808061161b565b60249060405190633250574960e11b82526004820152fd5b9091508581813d8311611752575b6117318183611197565b810103126101ab57516001600160e01b0319811681036101ab57905f611683565b503d611727565b60ff60075460a01c1661176857565b60405163d93c066560e01b8152600490fdfea264697066735822122059b68ad39f45ed74e0f7b27355486d4014a7038cb14f9ee29e326469cac5060264736f6c63430008180033","linkReferences":{}},"methodIdentifiers":{"approve(address,uint256)":"095ea7b3","balanceOf(address)":"70a08231","getApproved(uint256)":"081812fc","isApprovedForAll(address,address)":"e985e9c5","isSoulbound(uint256)":"911ec470","mintCertificate(address,string,bool)":"e8485847","name()":"06fdde03","owner()":"8da5cb5b","ownerOf(uint256)":"6352211e","pause()":"8456cb59","paused()":"5c975abb","registryContract()":"28c1f99b","renounceOwnership()":"715018a6","safeTransferFrom(address,address,uint256)":"42842e0e","safeTransferFrom(address,address,uint256,bytes)":"b88d4fde","setApprovalForAll(address,bool)":"a22cb465","setRegistryContract(address)":"028ebc44","setSoulbound(uint256,bool)":"966d964b","supportsInterface(bytes4)":"01ffc9a7","symbol()":"95d89b41","tokenURI(uint256)":"c87b56dd","transferFrom(address,address,uint256)":"23b872dd","transferOwnership(address)":"f2fde38b","unpause()":"3f4ba83a"},"id":46}